:020000040800F2
:1000000018380020990100084F1F0008DD1A000869
:100010004D1F000861070008E723000800000000EA
:1000200000000000000000000000000001010008C6
:10003000630700080000000045010008D520000803
:10004000B3010008B3010008B3010008B3010008C0
:10005000B3010008B3010008B3010008B3010008B0
:10006000B3010008B3010008B3010008B3010008A0
:10007000B3010008B3010008B3010008B301000890
:10008000B3010008B3010008B3010008B301000880
:10009000B3010008B3010008B3010008B301000870
:1000A000B3010008B3010008B3010008B301000860
:1000B000B30100086D21000881210008B301000888
:1000C000B3010008B3010008B3010008B301000840
:1000D000B3010008B3010008B3010008B301000830
:1000E000B3010008B3010008B3010008DFF80CD029
:1000F00000F0A6FA00480047952E000818380020A6
:10010000224B19680868B0E8F00F80F30988BFF344
:100110006F8F4FF0000080F311884EF00D0E704786
:100120000000000006480068006880F3088862B696
:1001300061B6BFF34F8FBFF36F8F00DF00BF00BF0B
:1001400008ED00E0EFF30980BFF36F8F0F4B1A68E3
:1001500020E9F00F106008B54FF0500080F31188CF
:10016000BFF34F8FBFF36F8F03F0ECFE4FF0000033
:1001700080F31188BDE8084019680868B0E8F00FFE
:1001800080F30988BFF36F8F704700BF1400002011
:10019000EFF3058070470000064880470648004797
:1001A000FEE7FEE7FEE7FEE7FEE7FEE7FEE7FEE727
:1001B000FEE7FEE769210008ED000008202A04DBC5
:1001C000203A21FA02F00021704721FA02F3D040D0
:1001D000C2F12002914008431946704740EA0103EA
:1001E0009B0703D009E008C9121F08C0042AFAD2ED
:1001F00003E011F8013B00F8013B521EF9D27047B1
:10020000D2B201E000F8012B491EFBD27047002258
:10021000F6E710B513460A4604461946FFF7F0FF05
:10022000204610BD10B5002200E0521C835C8C5C9F
:10023000A34201D1002BF8D1D8B2E1B2401A10BDCF
:1002400030B50B46014600202022012409E021FAA6
:1002500002F59D4205D303FA02F5491B04FA02F5A3
:100260002844151EA2F10102F1DC30BD2DE9F05F3A
:100270000546002092469B46884606468146402415
:100280001BE02846414647462246FFF797FF534664
:100290005A46C01A914110D311461846224600F022
:1002A000E1F92D1A67EB01084F4622460120002193
:1002B00000F0D8F917EB00094E41201EA4F101040B
:1002C000DFDC484631462A464346BDE8F09F2DE92B
:1002D000FE4F804681EA0300C00F0C46009021F0DB
:1002E000004123F00045B8EB0200A94105D2404689
:1002F000214690461C460B46024623F00040104320
:1003000047D0270DC7F30A00C3F30A510290401AE1
:10031000019040286BDAC3F3130040F4801B00986F
:10032000924620B10023D2EB030A63EB0B0B01983A
:100330005946C0F14002504600F094F906460D4679
:1003400050465946019A00F09CF910EB08006141B3
:10035000002487EA115284EAE7731A4340D0009AD6
:1003600062B3019A012A4FEA075215DC001B61EBC8
:1003700002014FF0004202EA0752CDE90042001CA0
:1003800041F5801132462B4600F09CF903B0BDE8E0
:10039000F08F40462146F9E7001B61EB0201001C8B
:1003A00041F5801300185B412018A2F5001747EBB8
:1003B000030140EAD570B6196D4111E06D084FEAAE
:1003C000360645EAC0754FEA0752001B61EB020191
:1003D000001C41F5801149084FEA300000195141D5
:1003E00032462B4603B0BDE8F04F00F05CB90098F0
:1003F000012240000023D0EB020263EBE07300987F
:1004000021464FEAE074B8EB000061EB0401E9E734
:1004100083F000435BE781F0004158E72DE9FE4F90
:1004200081EA030404F0004421F0004100944FF0FD
:10043000000B23F0004350EA01045ED052EA0304AB
:100440005BD0C3F30A54C1F30A552C44A4F2F3342D
:100450000194A0FB0254C1F3130141F48011C3F3D2
:10046000130343F4801301FB024400FB034E840A90
:10047000970A44EA815447EA8357A4FB0768029528
:100480008D0A05FB07854FEA932C04FB0C542705C6
:10049000029D4FEA065847EA1637B5EB08056EEBA2
:1004A000070C870E920E47EA811742EA8312A7FBD8
:1004B0000201B6EB0B0164EB00042B0D43EA0C3395
:1004C0005E1844EB1C50DA465146E7FB0201C5F3C7
:1004D00013044FEA0B3343EA14534FEA0432019CEE
:1004E00043EA0603A4F10C040294009CCDE900B495
:1004F00000F0E8F803B0BDE8F08F00200146F9E70E
:100500002DE9F04D81EA030404F0004B21F0004591
:1005100014464FF0000A23F0004150EA050220D0B3
:1005200054EA01021DD0C5F30A570246C5F313036E
:10053000C1F31300C1F30A5640F4801543F480134D
:10054000A7EB0608101BD64608F2FD3873EB050032
:1005500002D308F1010801E092185B41B8F1000FE5
:1005600003DA00200146BDE8F08D00204FF4801131
:10057000064684460EE0171B73EB050705D3121BD6
:1005800063EB050306434CEA010C49084FEA3000CF
:1005900092185B4150EA0107EDD152EA030012D0F4
:1005A00082EA040083EA0501084305D0101BAB4131
:1005B00006D20122002306E000224FF0004302E0B1
:1005C0006FF0010253101AEB06004CEB085110EBD0
:1005D0000A0041EB0B01BDE8F04D00F064B8C1F337
:1005E0000A52C1F3130140F2FF3341F480119A42E1
:1005F00002DA00200146704740F233439A42A2F2E9
:10060000334202DC5242FFF7D9BD00F02BB80000A4
:1006100030B5041E71F1000404DB4FF00044404289
:1006200064EB0101141E73F1000405DB1C464FF05E
:100630000043524263EB0403994208BF904230BD2D
:10064000064C074D06E0E06840F0010394E807001F
:1006500098471034AC42F6D3FFF74CFD0C59000814
:100660002C590008202A04DB203A00FA02F100206D
:1006700070479140C2F1200320FA03F319439040E0
:100680007047202A06DBCB17203A41FA02F043EAF2
:10069000E07306E041FA02F3D040C2F1200291403B
:1006A00008431946704710B5141E73F1000408DAA8
:1006B000401C41F1000192185B411A4301D120F026
:1006C000010010BD2DE9F04D92469B4611B1B1FAE3
:1006D00081F202E0B0FA80F220329046FFF7C2FFCA
:1006E00004460F4640EA0A0041EA0B0153465A46C7
:1006F000084313D0114653EA010019D0C8F1400253
:100700005046FFF75BFD05460E46504659464246A9
:10071000FFF7A8FF084305D0012004E02046394632
:10072000BDE8F08D0020054346EAE0762C433743D0
:100730000A986305E40AA0EB08000022FD0A44EAD7
:1007400047540A3002D500200146E9E70105101997
:100750006941DDE9084500196941BDE8F04DA2E7AE
:10076000FEE7704772B6FEE770B5044600F004F984
:100770000546601C02D004480078044400F0FCF8F0
:10078000401BA042FAD370BD040000202DE9F84FB1
:10079000DFF8B8910024A9F1040B23460F2709F1D3
:1007A000040AABF1040EC9E00125A5402A40AA4283
:1007B0007DD1674ED1F804C0ACEB0608B44532D009
:1007C00014DCBCF1030F3AD009DCBCF1000F2AD0D5
:1007D000BCF1010F1CD0BCF1020F31D11DE0BCF106
:1007E000110F17D0BCF1120F2AD119E0B8F5881FEC
:1007F00019D006DCB8F5803F15D0B8F5801F1FD1A1
:1008000011E0B8F5001F0ED0B8F5041F18D10AE0AA
:10081000CB6815E0CB681B1D12E0CB6808330FE0F6
:10082000CB680C330CE08B682BB1012B4FF0080325
:1008300003D0456104E0042302E0056100E00023E9
:10084000FF2A01D8064601E000F104064FEA8405BC
:1008500001D9A5F12005D6F8008007FA05FC28EAA1
:100860000C0803FA05F548EA0508C6F800804D684B
:10087000ED0062D5374DAE6946F00106AE61AD6957
:1008800024F0030605F001050095334D06EB050C39
:10089000DCF80850A607360F07FA06F825EA08051F
:1008A000DFF8B880404503D14FF0000817E044E07E
:1008B000DFF8AC80404502D14FF001080FE0DFF8CF
:1008C000A480404502D14FF0020808E0DFF898808C
:1008D000404502D14FF0030801E04FF0040808FA48
:1008E00006F848EA0508CCF808804D68D9F8006099
:1008F000ED024D4601D5164300E096432E604D684B
:10090000DAF80060AD02554601D5164300E0964383
:100910002E604D68DBF80060AD035D4601D51643DF
:1009200000E096432E604D68DEF80060ED037546EA
:1009300001D5164300E096432E60641C0D682A46DC
:10094000E5407FF431AFBDE8F88F000008040140B6
:10095000000011100010024000000140000801409A
:10096000000C014000100140001401408068084064
:1009700000D00120704700000148806870470000E7
:100980000400002070B5040025D094F83D00002537
:1009900020B984F83C50204600F04EF9242084F819
:1009A0003D002068016821F00101016020680168B4
:1009B00041F4004101602068016821F400410160B8
:1009C00000F0B6FB4D4A6168914201D84C4900E005
:1009D0004C49884201D2012070BD4B492368B0FBCD
:1009E000F1F15E6826F03F060E435E606368934255
:1009F00006D94FF4967359434FF47A73B1FBF3F170
:100A00002368491C1E6A26F03F063143196261685B
:100A1000914210D84900401EB0FBF1F2521CC2F3C3
:100A20000B02042A01D2042022E0B0FBF1F0401CAA
:100A3000C0F30B001CE0A268F2B301EBC10303EBAF
:100A40000116431EB3FBF6F35B1C43F480431B0506
:100A500049D092B301EBC10202EB0111401EB0FB81
:100A6000F1F0401CC0F30B0040F4804040F4004023
:100A70002168CA694CF6FF739A431043C861D4E9F0
:100A8000071001432068026822F0C0021143016090
:100A9000D4E9030101432068826848F2FF339A4396
:100AA00011438160D4E9050108432168CA6822F036
:100AB000FF021043C86001E00EE016E02068016804
:100AC00041F0010101602564202084F83D00256388
:100AD00084F83E50002070BD01EB4106431EB3FB7D
:100AE000F6F35B1CB3E70120C2E701EB4101401EB6
:100AF000B0FBF1F0401CC0F30B00B7E7A08601008B
:100B000080841E0000093D0040420F002DE9F84F8F
:100B10001F4690468A460446DDF82890FFF72CFFD2
:100B2000054694F83D0020287FD119230122404931
:100B30002046009501F064F8002876D194F83C0036
:100B4000012872D0012084F83C0020680168C907A0
:100B500003D1016841F0010101602068016821F4BE
:100B600000610160212084F83D00102084F83E00DF
:100B700000262664C4F824806785608D20852D4872
:100B8000E0622B464A465146204600F0BFFF90B92E
:100B9000206841698069009036E02A46494620462F
:100BA00001F0D4F850B1206C042804D12068016809
:100BB00041F4007101600120BDE8F88F606A21688E
:100BC00000780861606A401C6062618D491E618521
:100BD000218D491E89B2218522685369DB435B0759
:100BE0000BD451B100781061606A401C6062608D66
:100BF000401E6085208D401E20852A46494620469D
:100C000000F0D2FF0028CED1208D0028C5D154F8A5
:100C10003D0B016841F400710160202004F81E09B9
:100C2000E67766770020C7E7FFE70220C4E7000009
:100C3000020010000000FFFF10B586B000210091F7
:100C400001910291039100680F4988421AD10F4C1B
:100C5000A06940F00800A061A069694600F00800A2
:100C60000490C020009012200190032003900848B7
:100C7000FFF78CFDE06940F40010E061E06900F4EA
:100C80000010049006B010BD005400400010024057
:100C9000000C01400248816802781144816070476D
:100CA00004000020074810B5016841F01001016000
:100CB000032000F0A7F80F2000F006F800F050F82D
:100CC000002010BD0020024030B505461F4887B007
:100CD000C16941F00401C161C06906A900F00400C6
:100CE000009001A800F004FA0498B0B100F020FAD6
:100CF00040001749174AB0FBF1F11748491E02603E
:100D0000416040F2E7320021C0E903218160816146
:100D100000F09CFC040003D015E000F009FAE8E7BD
:100D20000D4800F0DFFC04000DD11E2000F03CF85F
:100D3000102D07D2002229461E2000F043F8074854
:100D4000056000E0012407B0204630BD00100240DD
:100D500040420F0000080040B801002008000020B9
:100D60000F4808B5816941F001018161816901F095
:100D700001010091C16941F08051C161C069002247
:100D800000F0805000900F21901E00F01BF80548E5
:100D9000416821F0E06141F00071416008BD000050
:100DA0000010024000000140002809DB00F01F0293
:100DB000012191404009800000F1E020C0F80011BD
:100DC00070470000F0B40E4B1B680C46C3F30223BF
:100DD000C3F10705042D00D90425191D072901D2E7
:100DE000002300E0DB1E012606FA05F1491E214022
:100DF00099409E40761E16403143F0BC01F004BB82
:100E00000CED00E0064900F0070208684FF6FF030A
:100E1000184040EA0220034A10430860704700006F
:100E20000CED00E00000FA0501490120086270475E
:100E300000000E4210B501460020234C012922D0AB
:100E4000022939D010291DD161682268D20119D533
:100E50001E48C1F38342C903805C0AD561681B4AFE
:100E6000C1F34041921E515C194AB2FBF1F1484373
:100E700001E0184948436168490203D44000032156
:100E8000B0FBF1F010BD226AC2F30121012903D1A8
:100E9000920701D5C80310BD022905D1626A9207E5
:100EA00002D549F6404010BD0329FCD121688903D1
:100EB000F9D54FF2244010BD00F04AF96168C1F342
:100EC0008131491C4900DBE7001002408C490008D1
:100ED00000127A0000093D002DE9F843054600782C
:100EE000354CC00754D0E0690026C00008D4E06942
:100EF00040F08050E061E069012600F080500090F1
:100F00002E480168C90512D40168804641F48071F9
:100F10000160FFF731FD074605E000BFFFF72CFD3C
:100F2000C01B642823D8D8F80000C005F6D5206A75
:100F300010F4407021D0A98801F4407181421CD086
:100F4000206A1F49012220F440700A6000220A60D2
:100F50002062C00711D0FFF70FFD074641F2883825
:100F600008E000BFFFF708FDC11B414502D903207F
:100F7000BDE8F883206A8007F4D5206A696820F408
:100F80004070084320621EB1E06920F08050E061AB
:100F90002878800705D56068A96820F44040084398
:100FA00060602878C00605D56068E96820F4800094
:100FB000084360600020DBE7001002400070004042
:100FC000400442422DE9F0470F46050061D0434EF0
:100FD000306800F00700B84209D2306820F00700FE
:100FE00038433060306800F00700B84251D12868BB
:100FF0003B4C810712D5400703D5606840F4E060A0
:1010000060602878000703D5606840F46050606035
:101010006068A96820F0F000084360602878C00785
:1010200028D06868012810D02168022810D08907CC
:1010300000292EDA616821F0030101436160FFF7A6
:101040009BFC804641F288390DE021688903EFE777
:101050008901EDE7FFF790FCA0EB0801494502D9B3
:101060000320BDE8F0876068696800F00C00B0EB11
:10107000810FEFD1306800F00700B8420BD930681B
:1010800020F0070038433060306800F00700B842B5
:1010900001D00120E5E72878400705D56068E968B8
:1010A00020F4E060084360602878000706D5606897
:1010B000296920F4605040EAC100606000F058F8EF
:1010C0006168084AC1F30311515CC84006490860D1
:1010D00006480068FFF7F8FD0020C2E70020024044
:1010E000001002409C490008100000200800002069
:1010F0000F2202600C4A536803F0030343605368F5
:1011000003F0F0038360536803F4E063C360526844
:101110004FF4E06303EAD20202610448006800F081
:1011200007000860704700000010024000200240E5
:101130000448054900684968044AC1F30221515C2A
:10114000C84070471000002000100240AC49000861
:101150000448054900684968044AC1F3C221515C4A
:10116000C84070471000002000100240AC49000841
:101170000E4A51680E4801F00C03042B11D0082BC5
:101180000FD10C48C1F38343C903C05C0AD5516831
:10119000084AC1F34041921E515C054A5043B0FBDE
:1011A000F1F07047044948437047000000100240C6
:1011B00000127A007A49000800093D002DE9F84F35
:1011C000040070D02078C04DC00749D06868C0F3D3
:1011D0008100012807D06868C0F38100022809D186
:1011E0006868C00306D52868800339D56068002880
:1011F000E7D035E06068B0F5803F0BD010B1B0F5B6
:10120000A02F11D0286820F480302860286820F4AE
:10121000802002E0286840F480302860606890B147
:10122000FFF7AAFB06460AE0286840F48020286001
:10123000F0E700BFFFF7A0FB801B642873D8286885
:101240008003F7D50CE0FFF797FB064605E000BFEB
:10125000FFF792FB801B6428F0D828688003F7D43E
:1012600020789A4E80074FF001094FF0000839D5D9
:10127000686810F00C0F07D06868C0F3810002287E
:1012800009D16868C00306D42868800714D520698E
:10129000012808D110E02069B0B1C6F80090FFF72E
:1012A0006BFB074605E00AE1FFF766FBC01B02285F
:1012B000C4D828688007F7D52868616920F0F8004D
:1012C00040EAC10028600DE0C6F80080FFF754FB3B
:1012D000074604E0FFF750FBC01B022823D828680C
:1012E0008007F7D4207800072CD57948A169D9B1B7
:1012F000C0F80090FFF740FB074604E0FFF73CFB17
:10130000C01B02280FD8686A8007F7D571484FF4D0
:10131000FA510068B0FBF1F0009000BF0098411E48
:101320000091FAD20EE080E0C0F80080FFF724FBC5
:10133000074604E0FFF720FBC01B022875D8686A47
:101340008007F7D42078400760D5E8690027C000FF
:1013500008D4E86940F08050E861E869012700F0AE
:10136000805000905C480168C90513D40168834629
:1013700041F480710160FFF7FFFA824606E000BF8A
:10138000FFF7FAFAA0EB0A0064284ED8DBF8000059
:10139000C005F5D5E06801280AD008B1052813D0AA
:1013A000286A20F001002862286A20F0040002E088
:1013B000286A40F001002862E06841F2883B98B159
:1013C000FFF7DAFA82460BE0286A40F00400286250
:1013D000EEE700BFFFF7D0FAA0EB0A0159455AD853
:1013E000286A8007F6D50CE0FFF7C6FA824605E0CA
:1013F000FFF7C2FAA0EB0A0159454CD8286A8007CA
:10140000F6D41FB1E86920F08050E861E06988B344
:101410006968C1F38101022944D00228C6F86080BE
:1014200004D0FFF7A9FA044638E034E0FFF7A4FA45
:10143000074604E0FFF7A0FAC01B02282BD8286853
:101440008001F7D4206AB0F5803F05D16868A168B3
:1014500020F4003008436860D4E908010843696853
:1014600021F4741108436860C6F86090FFF784FAAD
:10147000044606E025E000BFFFF77EFA001B0228C5
:1014800009D828688001F7D51BE000BFFFF774FA80
:10149000001B022802D90320BDE8F88F28688001CC
:1014A000F4D40EE00128F7D06868226A00F4803195
:1014B000914204D1616A00F47010884201D0012089
:1014C000EAE70020E8E70000001002400000424286
:1014D00080044242100000200070004070B50400FB
:1014E00003D0607C002610B105E0012070BD267499
:1014F000204600F03DF802206074204600F052F8CB
:10150000042550BB204600F063FD30BB20684168D5
:1015100021F007014160A06820B11448016821F062
:10152000010101601148001F0168A26821F4607187
:10153000114301606068411C04D10120FFF77AFC6F
:1015400058B1401E2268C0F303419160216880B207
:10155000C860204600F056FD08B16574C5E7E67323
:1015600001206073A0736074002070BD306C004077
:1015700008B50068084988420DD1FFF755FC0748B7
:10158000C16941F00061C161C069054900F00060B6
:1015900000900120086008BD0028004000100240B3
:1015A0003C04424270B504000AD02068416821F032
:1015B00008014160FFF7E0F905464FF47A7608E04C
:1015C000012070BDFFF7D8F9401BB04201D90320BC
:1015D00070BD206840680007F4D5002070BD7047DA
:1015E0007047000070B590F83C20012A26D00124F5
:1015F00080F83C40022280F83D2003685A689D68CC
:1016000022F070060A6832435A600D4B02689A4213
:1016100008D0B2F1804F05D00A4B9A4202D00A4B53
:101620009A4204D1496825F080031943916080F8FB
:101630003D40002180F83C10084670BD022070BD7E
:10164000002C0140000400400008004010B50400D8
:1016500003D094F83D0010B107E0012010BD002038
:1016600084F83C00204600F01FF8022084F83D007A
:10167000211D206800F08AFD012084F8460084F8CE
:101680003E0084F83F0084F8400084F8410084F86C
:10169000420084F8430084F8440084F8450084F84C
:1016A0003D00002010BD000008B500680B498842CD
:1016B00012D10B48C16941F00201C161C069002229
:1016C00000F00200009005211D20FFF77BFBBDE824
:1016D00008401D20FFF768BB08BD00000004004063
:1016E0000010024090F83D10012901D00120704700
:1016F000022180F83D100168CA6842F00102CA6008
:1017000000680B49884208D0B0F1804F05D00949E4
:10171000884202D00849884204D1816801F007015B
:10172000062903D0016841F00101016000207047E3
:10173000002C0140000400400008004070B5044641
:1017400090F83C000025012817D0012684F83C6061
:10175000022084F83D002068826822F0770222F49B
:101760007F4282600868502838D00DDC20284FD096
:1017700005DC90B3102811D14AE0022070BD30285A
:1017800046D040280AD13BE060282FD070280DD0E9
:10179000B0F5805F03D0B0F5005F12D0012584F86A
:1017A0003D60002084F83C00284670BDCB68D1E93C
:1017B0000121206800F026FD2068816841F0770152
:1017C00009E0CB68D1E90121206800F01BFD206809
:1017D000816841F480418160E1E719E0CA684968A5
:1017E000206800F021FD5021206806E0CA684968A1
:1017F000206800F02AFD6021206800F00DFDCEE792
:10180000CA684968206800F00FFD40212068F4E7AD
:10181000226801461046F0E770472DE9F041044682
:101820000068C66805694FF00007A90713D5B1071E
:1018300011D5F91E01610120207720688069800799
:10184000204602D0FFF7E8FF04E000F07EF82046D3
:1018500000F07CF82777680716D5700714D5216843
:101860006FF004000861022020772068806910F47E
:10187000407F204602D0FFF7CFFF04E000F065F87C
:10188000204600F063F82777280715D5300713D5D1
:1018900021686FF008000861042020772068C06983
:1018A0008007204602D0FFF7B7FF04E000F04DF8B4
:1018B000204600F04BF82777E80616D5F00614D539
:1018C00021686FF010000861082020772068C06947
:1018D00010F4407F204602D0FFF79EFF04E000F0A6
:1018E00034F8204600F032F82777E80708D0F007F0
:1018F00006D021686FF001000861204600F028F84A
:10190000280608D5300606D521686FF080000861EA
:101910002046FFF764FE680608D5700606D52168E4
:101920006FF040000861204600F01CF8A8060AD5B8
:10193000B00608D521686FF0200008612046BDE898
:10194000F041FFF74DBEBDE8F081704770470000E1
:1019500000680349884201D1FFF79CB97047000035
:1019600000080040704770B5040004D094F84100AE
:10197000002510B106E0012070BD84F840502046DB
:1019800000F024F8242084F841002068C16821F484
:101990000051C160204600F091FC2068016921F4EB
:1019A000904101612068416921F02A01416120686C
:1019B000C16841F40051C1606564202084F8410091
:1019C00084F842006563002070BD000030B585B02A
:1019D00000240094019402940394006814498842FE
:1019E00024D11448816941F480418161816901F405
:1019F00080410491816941F00401816180690E4D4B
:101A000000F0040004904FF4007000900220019058
:101A10000320039069462846FEF7B8FE2815CDE955
:101A20000004694628460294FEF7B0FE05B030BDBA
:101A30000038014000100240000801402DE9F84341
:101A4000044690F84100984616460D46202802D0DC
:101A50000220BDE8F88385B17EB1002060642120BA
:101A600084F84100FEF788FFA6848146E684A068DA
:101A70002027B0F5805F02D003E00120E9E720696C
:101A800010B12E4600250EE000260CE080212046F5
:101A900000F070FCA8B9C6B116F8010B21684860C7
:101AA000E08C401EE084E08C4B464FF00002CDF805
:101AB00000800028EAD14FF04001204600F05AFC97
:101AC00040B184F841700320C3E735F8020BC0F33E
:101AD0000800E3E784F841700020BAE7FEE70168F8
:101AE0004A69D24352050FD46FF480624A610021E3
:101AF00040F8301F202242738173026942F00402D1
:101B0000026101730120704700207047F8B5044658
:101B1000C06A1E460D461746082807D0012805D082
:101B200010F5803F02D0206B122804D12068016894
:101B300041F480710160134600224FF001112046EC
:101B4000009600F05DF840B120680068C00502D53D
:101B50004FF4007020640320F8BD2069B0F5804F79
:101B60000ED00620216800EAD51040F0F000086190
:101B700033463A460B49204600F08AF878B902E02D
:101B800005F0FE0000E0E8B221680861054933462F
:101B90003A46891F204600F07BF80028DCD001205F
:101BA000F8BD00000800010070B516460D46044659
:101BB0001EE02046FFF793FF08B1012070BD681CAE
:101BC00016D0FEF7D9FE801BA84200D885B9206840
:101BD0004069C04340070BD5002044F8300F202156
:101BE0006173A073216941F0200121612073E4E752
:101BF00020684069C0434007DBD4002070BD00006E
:101C00002DE9F047984617460D460446C1F30746AE
:101C1000DDF820902AE000BFB8F1FF3F26D0FEF7A4
:101C2000ABFEA0EB0901414502D8B8F1000F1DD170
:101C30002068012E16D0806925EA00000004000CFF
:101C400012D00020B84211D1002044F8300F2021DA
:101C50006173A073216941F020012161207301208B
:101C6000BDE8F0874069E7E70120EBE72068012E37
:101C70000AD0806925EA00000004000C06D000208C
:101C8000B842C9D00020EBE74069F3E70120F7E74D
:101C90002DE9F047984616460D4604464FF00009D8
:101CA0004FF0200AC1F3074723E020684069C04392
:101CB000400515D42068016841F400710160216875
:101CC0006FF480604861C4F8309084F83DA084F8D7
:101CD0003E90216C41F00401216484F83C9021E0A5
:101CE000701C06D0FEF748FEA0EB0800B04203D8F7
:101CF00016B1012F1FD021E02068012F15D0806977
:101D000025EA00000004000C18D000BF44F8309F02
:101D100084F80DA084F80E90216941F02001216122
:101D200084F80C900120BDE8F087406925EA0000A6
:101D30000004000CEAD12068406901E02068806955
:101D400025EA00000004000CAFD1ECE770B51646A0
:101D50000D4604461EE02046FFF7C1FE08B10120F3
:101D600070BD681C16D0FEF707FE801BA84200D885
:101D700085B920684069C04300060BD5002044F8AF
:101D8000300F20216173A073216941F0200121618E
:101D90002073E4E720684069C0430006DBD40020DC
:101DA00070BD000010B50748FFF79CFC00F0E6FF8F
:101DB00001F0F6F8044A0021044801F047FA04490A
:101DC000086010BD28010020544900083D2000088B
:101DD0000000002000B585B0002001900390154858
:101DE000816941F010018161816901F01001049164
:101DF000816941F020018161816901F02001049134
:101E0000816941F004018161816901F0040104915B
:101E1000816941F0080181618069694600F008002C
:101E200004901E200090012002900348FEF7AEFCB3
:101E300005B000BD00100240000801400D4810B57B
:101E40000B4901600C49416000214FF480428160E0
:101E5000C0E9031241618161C1610162FEF792FD37
:101E6000002803D0BDE81040FEF77CBC10BD000088
:101E700000540040C0000020A08601000A4810B5B0
:101E8000084901604FF0FF3141604FF4807181607B
:101E9000FFF724FB002803D0BDE81040FEF762BC2A
:101EA00010BD0000002800401401002010B586B0CD
:101EB0000024174800940194029403940494134955
:101EC000059401604FF4E151C0E901146421C0E9B7
:101ED000031480218161FFF7B9FB08B1FEF742FCD2
:101EE0004FF48050009069460948FFF727FC08B17D
:101EF000FEF738FC049404A905480594FFF772FB2B
:101F0000002801D0FEF72EFC06B010BD00040040F2
:101F1000280100200C4810B50A4901604FF4E13156
:101F20004160002181600C22C160C0E9041281611E
:101F3000C161FFF718FD002803D0BDE81040FEF78F
:101F400011BC10BD0038014070010020FEE7FEE723
:101F5000F8B506460C46481C00F0B2FF05460020C6
:101F6000287022463146681CFEF738F94FF47A7023
:101F7000641C0090A3B22A4678210448FEF7C6FDEF
:101F80002846BDE8F84000F0C5BE0000C0000020B3
:101F9000F8B506460C46481C00F092FF0546402066
:101FA000287022463146681CFEF718F94FF47A7003
:101FB000641C0090A3B22A4678210448FEF7A6FDCF
:101FC0002846BDE8F84000F0A5BE0000C000002093
:101FD00070B50446FEF7D0FC05464FF47A7606E06D
:101FE000FEF7CAFC401BB04201D9032070BD206837
:101FF00040688006F4D52068416841F010014160D6
:10200000002070BD70B504460068416821F01001E1
:102010004160FEF7B1FC05464FF47A7607E000BF59
:10202000FEF7AAFC401BB04201D9032070BD206816
:1020300040688006F4D5002070BD000008B518A0E7
:1020400000F0D2F9002106234122084600F0CCFF1F
:10205000062317A200210A2001F044F8062314A247
:1020600010210A2001F03EF8062311A220210A20A7
:1020700001F038F801F09AF8684600F073FE9DF818
:102080000110FF2907D00BA000F0AEF99DF8001059
:102090000CA000F0A9F9322001F09CF8ECE7000058
:1020A00048656C6C6F20776F72640D0A0000000049
:1020B000313233006B65792E76616C75653A256433
:1020C0000D0A00006B65792E6576656E743A25649D
:1020D0000D0A000010B54FF0E020006902F084FA0C
:1020E000012803D0BDE8104001F0B2BF10BD70B5AB
:1020F00094B028216846FEF78AF814210AA8FEF752
:1021000086F8002401250F9410942804CDE900508E
:1021100011941294029402260495CDE907604FF4BD
:10212000E01009906846FFF749F808B172B6FEE77B
:102130000F20CDE90A064FF48060CDE90C40022162
:102140000AA80E94FEF73EFF08B172B6FEE74FF400
:102150004070CDE90F500FA8FEF7BEFE002801D059
:1021600072B6FEE714B070BD7047000010B50348AA
:10217000FFF753FBBDE8104000F016BE2801002019
:102180000148FFF74ABB0000B8010020F0B5026823
:10219000194B1A4C1A4D4FF08047984205D0B8425F
:1021A00003D0A04201D0A84203D122F070064A68B1
:1021B0003243984205D0B84203D0A04201D0A84291
:1021C00003D122F44074CA6822434C6922F0800291
:1021D000224302608A68C2620A688262984201D120
:1021E00009690163012141610169C90703D00169DE
:1021F00021F001010161F0BD002C0140000400400C
:102200000008004010B5846842EA032224F47F44A9
:102210000A432243826010BD826822F070020A43A2
:1022200042F007018160704710B5036A046A24F028
:1022300001040462846924F0F00444EA021423F0E7
:102240000A020A438461026210BD10B5036A046A7F
:1022500024F010040462846923F0A00324F4704481
:1022600044EA023243EA01118261016210BD016851
:102270000C3151E8002F22F4907241E80023002B2A
:10228000F5D10168143151E8002F22F0010241E834
:102290000023002BF5D1016B012909D101680C3114
:1022A00051E8002F22F0100241E80023002BF5D165
:1022B000202180F8421000210163704770B5044668
:1022C00000680169E26821F440511143016121690C
:1022D000A0680843616908432168CA6841F20C6339
:1022E0009A430243CA6020684169A26921F440719F
:1022F000114341611E492068884202D1FEF728FF40
:1023000001E0FEF715FF00EBC00101EB0012606871
:1023100064218000B2FBF0F3B3FBF1F36FF0180619
:102320007343B2FBF0F5B2FBF0F605EB8305322305
:1023300003EB0515B5FBF1F5B6FBF1F605F0F0057D
:1023400005EB0615B2FBF0F6B2FBF0F0B0FBF1F0D6
:102350006FF01802504306EB800003EB0010B0FB57
:10236000F1F0216800F00F002844886070BD000083
:10237000003801402DE9F843984617460D460446BB
:10238000089E24E0701C22D0FEF7F6FAA0EB0800AD
:10239000B0421AD8CEB12068C168490717D5802D40
:1023A00015D0402D13D00168C94309070FD4016827
:1023B0000025406800902046FFF759FF0820606420
:1023C00084F840500120BDE8F8830320FBE7206833
:1023D000006835EA000004D00020B842D2D00020C6
:1023E000F1E70120F9E7FEE70FB4054B10B503A9AB
:1023F000044A029800F0EAF810BC5DF814FB0000F3
:10240000FD2C0008B40000200907090E002804DB99
:1024100000F1E02080F80014704700F00F0000F198
:10242000E02080F8141D704702E008C8121F08C1A0
:10243000002AFAD170477047002001E001C1121F45
:10244000002AFBD1704700002DE9FF5F82B0002118
:10245000DDE90430020DDDF840B0034318D044F646
:102460001050A2F2FF3242431514119801281FD0D8
:10247000A5EB0B00401C5FEA000A4FF000064E4F30
:10248000DFF83891B046504615D5CAF1000413E084
:10249000119801244AA3012801D16FEA0B01029887
:1024A000119AC0E90031C0E9024206B0BDE8F09FD0
:1024B000CBF10000DFE704460021404A491842EB17
:1024C0000450CDE9001012E0E00707D032463B4649
:1024D00040464946FDF7A2FF8046894632463B46C4
:1024E00010461946FDF79AFF06460F466410002C69
:1024F000EAD1DDE90401DDE90023BAF1000F06DAD3
:10250000FDF78CFF42464B46FDF788FF05E0FDF7DF
:10251000F7FF42464B46FDF7F3FF04460E46002206
:10252000284BFEF775F803D84FF0FF30014607E05F
:102530000022254B20463146FDF7C9FEFEF74FF835
:10254000102409E0002C0ADB0A220023FDF78EFE8E
:10255000039B30321A55641E50EA0102F2D1641C0A
:10256000039AC4F111031444119A012A03D00122E1
:1025700008430DD10AE0084304D000204FF0110BAE
:10258000119072E7A3EB0B056D1E0DE05B4504DDBA
:102590004FF0000205F1010504E003DA4FF00002FC
:1025A000A5F10105002AECD002981199C0E9023189
:1025B000C0E9004579E70000000014400000F03F4A
:1025C000300000000000F0430000E03F2DE9FF4F25
:1025D00095B09B468946064600250FE2252877D10F
:1025E00000242746F84A0121059400E0044316F828
:1025F000013F203B01FA03F01042F7D130782A283E
:1026000011D06FF02F033078A0F13002092A16D8CC
:10261000059A44F0020402EB820203EB42021044EA
:10262000761C0590EFE759F8042B0592002A03DA8F
:10263000504244F40054059044F00204761C307873
:102640002E2816D116F8010F44F004042A280DD0C4
:102650006FF02F023078A0F13003092B09D807EB77
:10266000870302EB4303C718761CF3E759F8047B92
:10267000761C30786C280FD006DC4C2817D06828E0
:102680000DD06A2814D104E0742810D07A280FD114
:102690000DE044F400140AE044F4801401E044F432
:1026A00040147278824202D104F58014761C761CA4
:1026B000307866280BD013DC582877D009DC002846
:1026C00075D04528F6D04628F4D047281AD19DE188
:1026D00018E0632835D0642879D0652812D195E1B7
:1026E000702873D008DC6728F1D069286FD06E2875
:1026F0000DD06F2806D1B5E073282CD0752875D081
:10270000782874D05A46179990476D1C75E1C4F328
:102710000250022809D003280DD0D9F8001004284F
:102720000DD00D6009F1040967E1D9F80010EA172E
:10273000C1E90052F6E7D9F800100D80F2E70D70FC
:10274000F0E719F8041B8DF8001000208DF8010047
:10275000EA46012003E059F804AB4FF0FF3061076F
:102760004FF0000102D40DE008F101018846B942A2
:102770000FDA8045F8DB1AF808100029F4D108E0D8
:1027800008F1010188468142FADB1AF80810002995
:10279000F6D105985B46A0EB080721463846179A04
:1027A00000F094FA284400EB080507E04DE029E129
:1027B0000DE01AF8010B5A4617999047B8F1010835
:1027C000F7D25B4621463846179A13E142E00A22C7
:1027D0000092C4F302524FF0000A022A08D059F8BE
:1027E00004CB032A4FEAEC710AD00DE029E02AE07D
:1027F00009F1070121F00702F2E802C1914609E060
:102800000FFA8CFC4FEAEC71042A03D14FFA8CFCCE
:102810004FEAEC71002907DA0A460021DCF1000CCE
:1028200061EB02012D2202E0220504D52B228DF856
:102830000420012203E0E20701D02022F7E79046BE
:1028400059E00A2102E010220DE010214FF0000AA9
:1028500000910BE010224FF0000A44F00404082716
:10286000009203E008224FF0000A0092C4F30252E3
:10287000022A05D059F804CB0021032A08D009E028
:1028800009F1070121F00702F2E802C1914605E0D3
:102890001FFA8CFC042A01D10CF0FF0C4FF0000849
:1028A000220728D5702806D0009B83F0100353EA36
:1028B0000A0305D00EE040228DF80420012208E032
:1028C0005CEA010206D030228DF804208DF8050064
:1028D00002229046009B83F0080353EA0A030AD1C0
:1028E0005CEA010201D1620705D530228DF804208F
:1028F0004FF001087F1E582804D034A003900EA882
:1029000002900DE036A0F9E753466046009AFDF7C5
:10291000ADFC84460398825C0298401E02900270CF
:102920005CEA0100F0D1029806A9081A00F1200A19
:10293000600702D524F4803400E00127574502DD0A
:10294000A7EB0A0000E0002000EB0A0100900598C8
:102950004144401A0590E00306D45B462146179A8D
:10296000059800F0B3F90544002706E001A85A468F
:10297000C05D179990476D1C7F1C4745F6DBE0034F
:102980000CD55B462146179A059800F09FF905443F
:1029900004E030205A46179990476D1C0099481E54
:1029A00000900029F5DC08E0029802995A46007868
:1029B000491C0291179990476D1CBAF10001AAF1C8
:1029C000010AF1DC65E100000928010030313233F1
:1029D000343536373839616263646566000000005B
:1029E0003031323334353637383941424344454645
:1029F0000000000000F058F90544761C30780028EB
:102A00007FF4ECAD19B02846BDE8F08F620700D422
:102A1000062709F1070222F0070CFCE80223E14631
:102A200003F000485FEA080C02D00FF2702C0DE0B2
:102A30005FEA045C02D50FF2682C07E05FEAC47C11
:102A400002D00FF2602C01E0AFF2700C4FF0FF38B3
:102A500023F00043CDF850C065280CD006DC452893
:102A600009D046281DD047283DD13DE0662818D022
:102A700067287ED138E00021112F01DB112000E012
:102A8000781CCDE9000106A90EA8FFF7DDFCDDE901
:102A90000F010E9A03910021009207F1010A04919F
:102AA0004DE04FF000400097CDE9011006A90EA8B7
:102AB000FFF7CAFCDDE90F0203920E9B1199002279
:102AC000DDF80CA00093049211B9791C00EB010A07
:102AD000B7EB0A0004D4C0F1FF3007F1010A0490FB
:102AE000AAEB0700019044E0012F00DA0127002142
:102AF000112F01DD112000E03846CDE9000106A9C3
:102B00000EA8FFF7A1FCDDE90F010E9A0391002149
:102B100004910092BA4621070CD40399514500DA7A
:102B20008A46BAF1010F05DD009AAAF10101515C54
:102B3000302908D0B84202DA10F1040F06DA012178
:102B4000CDE9011015E0AAF10101E9E7002805DC53
:102B5000049901440491AAEB000102E0411C514593
:102B600000DD8A460499401A401C01904FF0004055
:102B70000290200704D40198504501DBCDF8048071
:102B800000208DF84F0002980DF14F07B0F1004F73
:102B900025D02B200E9002984FF0020800280CDA66
:102BA000404202902D200E9007E00A210298FDF786
:102BB00047FB3031029007F8011DB8F10001A8F180
:102BC0000108F2DC02980028EFD1791E0E980870F7
:102BD000307800F0200040F0450007F8020D12A800
:102BE000C01B00F107081498007800B1012000EB29
:102BF0000A01019801EBE07105984144401A401E1A
:102C00000590E00306D45B462146179A059800F02C
:102C10005DF805441498007818B15A461799904702
:102C20006D1CE00324D55B462146179A059800F0F9
:102C30004DF805441CE00498002807DBDDE903019A
:102C4000884203DD0098405C179901E01799302015
:102C50005A469047049805F10105401C04900198DC
:102C6000401E019004D12E205A46179990476D1CA2
:102C7000BAF10001AAF1010ADDDC05E017F8010B49
:102C80005A46179990476D1CB8F10001A8F1010848
:102C9000F4DC5B462146179A0598ABE62D00000050
:102CA0002B000000200000002DE9F0410446002523
:102CB0001E461746880404D405E039462020B04754
:102CC0006D1C641EF9D52846BDE8F0812DE9F04160
:102CD000044600251E469046C80301D5302700E073
:102CE0002027880404D505E041463846B0476D1CCE
:102CF000641EF9D52846BDE8F081000013B54FF6F3
:102D0000FF73012269460248FEF798FE00981CBD39
:102D10007001002010B5002821D0114B0022001FA7
:102D2000196803E0814203D80A4649680029F9D1AD
:102D300052B11368841A9C4204D100681844106090
:102D4000104602E0506000E0186039B102680B1ACA
:102D5000934203D10B681A4402604968416010BD78
:102D6000B800002004490A7802704A7842700020B6
:102D70000870FF204870704799000020FA229100E7
:102D8000481000F001B800000A2310B5B0FBF3F4BE
:102D9000B1FBF3F1034844818181B2FBF3F1C181BE
:102DA00010BD0000940000202DE9F041374D0024B3
:102DB000374E2F1F35F8141056F82400FDF7D6FDB6
:102DC000395D884203D131480838025D04E0641C53
:102DD000E4B2042CEED3FF222D4800231038411D0D
:102DE0000478A2421BD045786D1CEDB24570022DCF
:102DF0002ED3FF2A02D0C270027029E005894689CD
:102E0000B54204D307240C70C4784C7005E0857873
:102E10006D1C8570C470847B04710381ECE7437082
:102E2000FF2A15D00489641CA4B204814589AC42F0
:102E300002D18370052409E08589AC4208D30A25B4
:102E4000B4FBF5F605FB164414B906240C704A7061
:102E50000279002A17D0521E12F0FF02027112D11D
:102E60008278012A04D0022A04D0032A04D005E083
:102E7000022202E0032200E004220A70C2784A70B3
:102E80008370FF21C170BDE8F0810000BC490008DB
:102E9000A4000020FDF706FFFFF729F9FEF79AFFCF
:102EA000FEF7CCFFFFF736F8FEF7E8FFFEF7FEFF70
:102EB00000F09EF9FEF776FF00F0ACF9FEE70000A7
:102EC000F0B50B30154D20F007010024144A0FE037
:102ED00003688B420BD38B4205D95E1A43184768AF
:102EE000C3E9006700E04368136002C004E0021D0C
:102EF00010680028ECD12046002802D1286808B1CB
:102F00000020F0BD064A07481060074A121A22F056
:102F10000702C0E9002401202860D7E7BC00002098
:102F2000B80000201C3200201834002010B5002109
:102F3000074C0A46002004EBC1131A54401CC0B2CF
:102F40008028FAD3491CC9B20829F3D310BD000068
:102F5000142E0020F0B50126DFF840E087180B445E
:102F600018E001F0070206FA02F5CA0804460EEB63
:102F7000C2120BE0402907D2802C05D212F804C0FF
:102F80002CEA050C02F804C0641CE4B2A742F1D894
:102F9000491CC9B28B42E4D8F0BD0000142E0020B9
:102FA00010B56420FDF7E0FB19210448FEF7D0FFBF
:102FB000FFF7BCFFBDE8104000F0F8B8C4490008B6
:102FC00008B540F0B0008DF80000102040EA111064
:102FD0008DF8010001F00F008DF802000321684612
:102FE000FEF7B6FF08BD000018B5062B0BD0072B67
:102FF00012D0082B1BD1102400940D4C04EB0212AC
:10300000A2F5007211E0082400940A4C02EB42027F
:1030100004EB4202C03A08E00C240094064CC2EBD8
:10302000C20204EB4202A2F5E07200F007F818BDFC
:1030300049510008DD490008174C00082DE9FF4FF1
:103040001C460D9D894682462B462246FFF782FF8D
:103050006D1EE917002005EB51710122DFF880B0E9
:1030600002EBE10637E0002131E000BF0AEB01038B
:10307000802B2AD200EBD90209F00705082A10D2CA
:10308000DDF8088000FB04FC88440BEBC21E1CF832
:1030900008C01EF803700CFA05FC47EA0C070EF88E
:1030A0000370571C082F10D2DDF808C00BEBC212BA
:1030B00000FB04F78C441A4417F80C7012F8803F98
:1030C000C5F10805EF403B431370491CC9B2A1424A
:1030D000CCD3401CC0B28642C5DCBDE8FF8F0000E7
:1030E000142E00202DE9FF4F85B09A4614468046E5
:1030F0004FF000094EE010068DF804200AD48DF838
:10310000059053464046641C0699FFF76DFF08EB97
:103110000A003DE014F8010F00283ED08DF80500AC
:103120000027641C8DF80690BAF1070F03D0BAF19E
:10313000080F05D009E04FF00C0B194F584603E07B
:10314000184F4FF0100B58460390002506E030460C
:1031500001A9FDF767F860B16D1CADB2C5EBC50004
:1031600000EB8000384406460FA1FDF75BF800280D
:10317000EDD103980090C5EBC50000EB8000C219AB
:103180005B464046D21C0699FFF758FF08EB0B0040
:1031900000F0FF082278002AADD109B0BDE8F08F19
:1031A00039570008515800080000000070B5084D5C
:1031B000002400212046FFF703FF05EBC410802107
:1031C000FEF7E6FE641CE4B2082CF2D370BD0000EA
:1031D000142E002010B5EFF3058111B16FF0050436
:1031E00003E0002408B100F0F9FD204610BD000006
:1031F000EFF3058010B16FF00500704704480168D7
:1032000011B14FF0FF30704701210160002070477D
:103210006400002010B5EFF3058010B16FF00500D9
:1032200010BD08480168012902D04FF0FF3010BDE1
:10323000054A002182F8141D0221016000F036FECB
:10324000002010BD640000200BE000E02DE9FF41EC
:103250004FEA01034FF00005EFF30581039549BBE9
:1032600040B38027182100244AB3166806B13446BB
:1032700096691EB13146761E382E02D21679F607AF
:1032800003D0002004B0BDE8F081566906B1B7084C
:10329000D2F808C0BCF1000F0DD0D5685C2D18D352
:1032A00012693AB136B18DE806103A46214601F06E
:1032B00070F903900DE0D6685EB912694AB903AAA5
:1032C000CDE90012BAB2214601F036F9012800D04A
:1032D00003950398D6E700002DE9F041134C0F4603
:1032E0000546E6682068001D00F042FC681C07D116
:1032F00037B12168BDE8F0410D48091D00F089BCD7
:1033000020683544B5424560216805D2A06BBDE810
:10331000F041091D00F065BC606B091D00F061FC07
:10332000A06A854200D2A562BDE8F08114000020A9
:10333000F00600202DE9F041054600F077FC2D4C09
:10334000A068401CA06020682B4F10B1606930B3AA
:103350002BE02560A068012827D1002606EB860017
:1033600007EB800000F02FFC761C382EF6D32348A4
:1033700000F029FC2148143000F025FC1F482830BB
:1033800000F021FC1D483C3000F01DFC1B48503073
:1033900000F019FC194860631430A06305E0206850
:1033A000E96AC06A884200D82560606A401C606291
:1033B0006864E86A2169884200D9206100EB8000D6
:1033C00007EB8000291D00F024FC00F04FFC606931
:1033D00000280CD02068E96AC06A884207D20849F0
:1033E0004FF080500860BFF34F8FBFF36F8FBDE881
:1033F000F08100001400002040020020A006002000
:1034000004ED00E038B500F011FC104C2068C8B99C
:103410000F4800F0D8FB0E48143000F0D4FB0C48E5
:10342000E060143020610A4B0020F03B009003F173
:10343000500210210A2000F021FE206010B105A1E9
:1034400000F096FCBDE8384000F010BC50000020B1
:10345000F4070020546D72510000000030B4026C7B
:103460000B46002A0BD0C1681144C1608468A14298
:1034700001D30168C16030BC1846FCF7AFBE30BC58
:1034800070472DE9F041856B174604460026026C13
:1034900082B1C7B1E068FCF7A1FEE168206C091AAF
:1034A000E1602268914202D2A168081AE060022F0E
:1034B00016D017E02068A8B9A06801F00DF90646FB
:1034C0000020A0600EE06068FCF788FE216C606858
:1034D00008446060A168884204D32068606001E00D
:1034E00005B16D1E6D1CA5633046BDE8F08110B5B9
:1034F000044690F8590058B101280CD002280FD08A
:10350000502080F31188BFF34F8FBFF36F8FFEE71A
:10351000206B00F0BFFB2046BDE8104000F0BABBB6
:1035200010BD000010484FF4FA51420706D0C01DEC
:103530000D4920F00700411AC1F5FA510B4A00234A
:103540000144C2E900030839183A21F0070111606B
:103550004B600B600B1AC0E9001393604FF0004002
:103560005360506170470000D40E0020800000209E
:10357000154E164CA6F29C474FF08058DFF850903D
:1035800012E000BF00F052FBF068C568281D00F093
:10359000EFFAA068401EA0606068401E606000F006
:1035A00065FB2846FFF7A3FF60680028EAD138686A
:1035B000012805D9C9F80080BFF34F8FBFF36F8F83
:1035C00000F000FBF0E70000DC0600201400002003
:1035D00004ED00E070B51D46049C51B1C4F8002014
:1035E000C4E90F010121204600F07CFD84F84C5015
:1035F00070BD2460F4E700002DE9F05F8846DDE946
:103600000B941546834691009A460A9EA522206B8C
:10361000FCF7F6FD6FF00301206B01EB8501084418
:1036200020F00707780707D0502080F31188BFF3F8
:103630004F8FBFF36F8FFEE70025B8F1000F0FD05B
:103640005FF00000221818F8001082F8341018F803
:10365000001011B1401C1028F4D384F8435001E04D
:1036600084F83450382E00D33726E662C4E9136557
:10367000201D00F0B3FA04F1180000F0AFFA246145
:10368000C6F138006462A061656584F858505246FE
:103690005946384600F05AFA2060B9F1000F01D0BF
:1036A000C9F80040BDE8F09F30B5114900E011466F
:1036B0000A688242FBD34B685C18844203D140689D
:1036C00018444860084643681C18944209D1084CC5
:1036D000183C2468A24209D052681A4442600A6821
:1036E00012680260814200D0086030BD0460F9E7D2
:1036F0008000002070B5002441600B4D00619142B4
:1037000006D8D11A8269914206D2011D286907E0C4
:103710009A4203D2994201D3012403E0011DE868D3
:1037200000F05FFA204670BD5000002010B504463E
:1037300000F07CFAA06B28B15FF0000400F096FA6C
:10374000204610BD0124F9E730B589B03C4D6EE04C
:103750000498002806DADDE90601059A90470498E6
:10376000002864DB069C606910B1201D00F000FA9F
:1037700003A800F0D7F8024604980A2857D2DFE8D9
:1037800000F00505052D334A05052D3394F8280072
:1037900040F0010084F828000599A069059B0144C8
:1037A0002046FFF7A7FF68B3216A2046884794F8B0
:1037B000280040073BD5002000900598A169002310
:1037C00042181946204601F091F8D8B9502080F3EC
:1037D0001188BFF34F8FBFF36F8FFEE714F8280FE8
:1037E00020F00100207022E094F8280040F0010051
:1037F00084F828000598A06128B181181346204656
:10380000FFF778FF13E0502080F31188BFF34F8F4C
:10381000BFF36F8FFEE794F82800810703D420469A
:1038200000F038FA03E020F0010084F828000022BC
:1038300004A9286800F0AAFD002889D109B030BD8C
:10384000500000202DE9FC410F46054600F072FBB8
:1038500001A800F067F80446019818B100F0B4FF21
:10386000BDE8FC81254EAFB130690068D0B30027B8
:10387000291B3A46306800F08FFA00F0A5FF0028B7
:10388000EED11F494FF080500860BFF34F8FBFF358
:103890006F8FE5E7A542EBD800F096FFF06827466A
:1038A000C068C468201D00F063F994F8280041073F
:1038B00019D5A0692B4641193A462046FFF71AFF51
:1038C000A8B100200346014600902A46204601F098
:1038D0000DF860B9502080F31188BFF34F8FBFF30C
:1038E0006F8FFEE707E020F0010084F82800216ACE
:1038F00020468847B4E70127BAE7000050000020BF
:1039000004ED00E00648416B096829B1416BC968C4
:10391000C9684968816270474FF0FF31FAE70000DB
:103920001400002070B5054600F06CFE064E0446FB
:10393000B068844203D200F009F8012000E00020C2
:1039400028602046B46070BD50000020F8B5194DC5
:1039500020E0C068C4680668201D00F009F9216AEB
:103960002046884794F82800400713D5A0693044C2
:10397000B04206D924616060211DE86800F031F989
:1039800008E000200346014600903246204600F041
:10399000ADFF38B1E86801680029DAD12969C5E9C5
:1039A0000310F8BD502080F31188BFF34F8FBFF391
:1039B0006F8FFEE75000002008484068401C4FF021
:1039C000500080F3118804D0BFF34F8FBFF36F8F87
:1039D000FEE7BFF34F8FBFF36F8FFEE78800002035
:1039E000074CE068016841B1C0680021D0F80000D0
:1039F000FFF728FFFFF7A8FEF3E701210020F7E714
:103A0000500000202DE9F041044600F00FF994F930
:103A1000455004F1240609E0606A48B1304600F0E0
:103A20009BFE08B100F008FA6D1E6DB2002DF3DCAC
:103A30004FF0FF3684F8456000F018F900F0F6F812
:103A400094F9445004F1100709E0206948B1384660
:103A500000F082FE08B100F0EFF96D1E6DB2002D8E
:103A6000F3DC84F84460BDE8F04100F0FFB80000EA
:103A70002DE9F0410546002700F05CFA324E30682F
:103A800008B9FFF74FFD706905424ED1C5B308353F
:103A900068070ED005F00700C0F10800054468076C
:103AA00007D0502080F31188BFF34F8FBFF36F8F83
:103AB000FEE72DB37068854237D823481830014699
:103AC0000C6801E020460C466168A94202D22168D8
:103AD0000029F7D131688C4227D00768216801603E
:103AE00060680837411B10290FD96019420708D0B8
:103AF000502080F31188BFF34F8FBFF36F8FFEE725
:103B000013E041606560FFF7CFFD61687068401A9F
:103B10007060B268904200D2B060706901430020CA
:103B2000C4E90001F068401CF06000F04DFE780729
:103B300007D0502080F31188BFF34F8FBFF36F8FF2
:103B4000FEE73846BDE8F0816800002010B5031F8D
:103B50004FF080741C601B1F21F001011960191FB8
:103B6000024B0B60143940380A6010BDB9390008A7
:103B7000D0E9013201699A60D0E901235A604A68AC
:103B8000824201D182684A60002202610868401EB8
:103B90000860086870470000034B036003F15C0095
:103BA00008608020106070471C080020044B0360F0
:103BB00003F15C0008604FF48070106070470000F3
:103BC000780A0020704700F108014FF0FF32C0E989
:103BD0000112C16001610021016070470021016193
:103BE000704730B50B685A1C02D000F1080202E0A1
:103BF000026904E02246546825689D42FAD9536858
:103C00004B6099608A60516008610168491C0160DD
:103C100030BD42684A6093688B60936859609160D8
:103C200008610168491C016070470000502080F362
:103C30001188BFF34F8FBFF36F8F0A494868401C4C
:103C4000486001280CD10848006810F0FF0F07D029
:103C5000502080F31188BFF34F8FBFF36F8FFEE7C3
:103C6000704700008800002004ED00E00849486823
:103C700028B1401E486001D180F311887047502060
:103C800080F31188BFF34F8FBFF36F8FFEE7000003
:103C90008800002070B500282AD0164DA0F1080435
:103CA00060686969084207D1502080F31188BFF32A
:103CB0004F8FBFF36F8FFEE722683AB1502080F339
:103CC0001188BFF34F8FBFF36F8FFEE788436060AB
:103CD00000F030F960686968084468602046FFF7C2
:103CE000E3FC2869401C2861BDE8704000F06CBD11
:103CF00070BD0000680000204FF0E020002101614D
:103D0000816105494FF47A720968B1FBF2F1491EED
:103D100041610721016170471000002010B5FCF7D8
:103D200037FA114910280ED300F1E02090F8F00383
:103D30000A78904207D2502080F31188BFF34F8F4A
:103D4000BFF36F8FFEE709480068896800F4E06000
:103D5000884207D9502080F31188BFF34F8FBFF3FB
:103D60006F8FFEE710BD0000880000200CED00E022
:103D700010B5084B002200BF53F832401CB1521C52
:103D8000082AF9D310BD43F8321003EBC201486092
:103D900010BD00000002002070B515460E46044616
:103DA000FFF744FF94F944100020491C01D184F826
:103DB000440094F94510491C01D184F84500FFF7EF
:103DC00055FFA06B28B92A46314604F1240000F0C3
:103DD00051F82046BDE87040FFF714BE10B5020050
:103DE00014D00F48006B38B1502080F31188BFF316
:103DF0004F8FBFF36F8FFEE700F09CF80021104655
:103E0000FFF76AFA00F0E0FC002807D105494FF0FF
:103E100080500860BFF34F8FBFF36F8F10BD00005D
:103E20001400002004ED00E002490A6A0260C9683B
:103E3000416070471400002001490120C8617047AB
:103E40001400002010B50C4650B10949096818311A
:103E5000FFF7C7FE2046BDE810400121FFF73CBA3E
:103E6000502080F31188BFF34F8FBFF36F8FFEE7B1
:103E70001400002070B514460D4668B10A4909685F
:103E80001831FFF7C6FE0CB14FF0FF35214628462A
:103E9000BDE87040FFF720BA502080F31188BFF3CF
:103EA0004F8FBFF36F8FFEE71400002030B587B04F
:103EB0000024039405AA04A903A80494FFF76CFE48
:103EC000DDE903010094CDE90110002315A1174895
:103ED000059A00F05EFB164D0028E8621FD000F046
:103EE000D5FC012809D0401C19D1502080F311883D
:103EF000BFF34F8FBFF36F8FFEE7502080F3118821
:103F0000BFF34F8FBFF36F8F4FF0FF30A8620120D8
:103F10006861EC6007B0BDE8304000F045B807B01C
:103F200030BD000049444C450000000071350008D8
:103F3000140000200248016B491C01637047000017
:103F400014000020164810B5016B11B10121C161A8
:103F500010BD0021C1610169124A01E0B9B1491ED9
:103F600001EB810352F82330002BF7D001EB8103E2
:103F700002EB830202F1080453685B685360A342BA
:103F800001D15B685360DA680260016110BD5020A6
:103F900080F31188BFF34F8FBFF36F8FFEE70000F0
:103FA00014000020400200201CB52649087801902A
:103FB000FF20087008788DF800009DF800009DF83B
:103FC000002000F0F000904207D0502080F31188CC
:103FD000BFF34F8FBFF36F8FFEE79DF800001A4CC1
:103FE00000F0500020700720A06005E09DF8002040
:103FF00052008DF80020401E9DF800201206F5D4D6
:10400000A060032807D0502080F31188BFF34F8FA2
:10401000BFF36F8FFEE74FF44070A0600198087007
:104020000A48016841F470010160016841F0704183
:104030000160FFF761FE00206060FCF773F800206C
:104040001CBD000000E400E08800002020ED00E03E
:1040500010B5502080F31188BFF34F8FBFF36F8FDF
:1040600000F0D6FA18B104494FF0805008600020E3
:1040700080F3118810BD000004ED00E038B5049D08
:1040800018B153B1CAB181B120E0502080F311883A
:10409000BFF34F8FBFF36F8FFEE7502080F311887F
:1040A000BFF34F8FBFF36F8FFEE7502080F311886F
:1040B000BFF34F8FBFF36F8FFEE739B1502080F30E
:1040C0001188BFF34F8FBFF36F8FFEE750241C465C
:1040D000012384F846302B460094FFF77BFA2046F4
:1040E00038BD000070B50D46040025D0FFF79EFDD9
:1040F000D4E90F20216802FB0011A1600021A16317
:10410000216861600A46D4E90F01401E00FB0121CD
:10411000E16021464FF0FF3001F8440F487004F190
:1041200010008DB1FFF74FFD04F12400FFF74BFDA8
:10413000FFF79CFD012070BD502080F31188BFF374
:104140004F8FBFF36F8FFEE721690029F0D000F099
:1041500003FB0028ECD004494FF080500860BFF307
:104160004F8FBFF36F8FE3E704ED00E02DE9FF47CA
:1041700082B01D468A464FF00008040003D0BAF111
:10418000000F08D011E0502080F31188BFF34F8F4B
:10419000BFF36F8FFEE7206C38B1502080F3118899
:1041A000BFF34F8FBFF36F8FFEE7022D0AD1E06B95
:1041B000012807D0502080F31188BFF34F8FBFF341
:1041C0006F8FFEE700F010FA3F4F4FF000094FF0FD
:1041D000805648B9049838B1502080F31188BFF355
:1041E0004F8FBFF36F8FFEE7FFF720FDA06BE16BF2
:1041F000884207D3022D05D00498D0B1B8F1000F42
:104200001AD01EE02A4651462046FFF73AF9616A65
:1042100019B104F1240000F09FFA20B13E60BFF311
:104220004F8FBFF36F8FFFF721FD012006B0BDE870
:10423000F087FFF71BFD22E06846FFF7F5FD4FF022
:104240000108FFF713FDFFF775FEFFF7EFFC94F988
:104250004400401C01D184F8449094F94500401C6E
:1042600001D184F84590FFF701FD04A9684600F0EC
:1042700029F930B12046FFF7C5FB00F0A5FA002070
:10428000D4E7FFF7D3FCA06BE16B884213D1FFF7B3
:10429000EDFC04F110000499FFF7D4FD2046FFF770
:1042A000B1FB00F091FA00289ED13E60BFF34F8F22
:1042B000BFF36F8F98E7FFF7D9FC2046FFF7A2FB0B
:1042C00000F082FA90E7000004ED00E02DE9F047ED
:1042D0001F4690468946040003D0B9F1000F08D06C
:1042E00011E0502080F31188BFF34F8FBFF36F8F21
:1042F000FEE7206C38B1502080F31188BFF34F8F58
:10430000BFF36F8FFEE7022F0AD1E06B012807D0C1
:10431000502080F31188BFF34F8FBFF36F8FFEE7FC
:10432000FFF7FCFC5020EFF3118680F31188BFF3F8
:104330004F8FBFF36F8FA06BE16B884206D3022FC4
:1043400004D0002086F31188BDE8F08794F9455029
:10435000A06B3A4649462046FFF793F8681C04D004
:104360006D1C84F845500120ECE7606A0028FAD003
:1043700004F1240000F0F0F90028F4D0B8F1000FA7
:10438000F1D00121C8F80010EDE700002DE9F74752
:10439000002683B08A46040003D0BAF1000F08D08B
:1043A00011E0502080F31188BFF34F8FBFF36F8F60
:1043B000FEE7206C38B1502080F31188BFF34F8F97
:1043C000BFF36F8FFEE700F00FF9DFF8F4804FF0D6
:1043D00000094FF0805748B9059838B1502080F354
:1043E0001188BFF34F8FBFF36F8FFEE7FFF71EFCFF
:1043F000A56BC5B151462046FFF730F86D1EA56389
:10440000206950B104F1100000F0A6F928B1C8F8F5
:104410000070BFF34F8FBFF36F8FFFF727FC0120B2
:1044200006B0BDE8F087059808B11EB106E0FFF7B9
:104430001DFC27E06846FFF7F7FC0126FFF716FC96
:10444000FFF778FDFFF7F2FB94F94400401C01D11F
:1044500084F8449094F94500401C01D184F84590BB
:10446000FFF704FC05A9684600F02CF80028204658
:104470000AD0FFF7C7FA00F0A7F92046FFF756F970
:104480000028B3D00020CBE7FFF750F990B104F13A
:1044900024000599FFF7D6FC2046FFF7B3FA00F099
:1044A00093F90028A2D1C8F80070BFF34F8FBFF373
:1044B0006F8F9BE72046FFF7A5FA00F085F995E797
:1044C00004ED00E02DE9F0410C46050011D0C4B127
:1044D000FFF7ACFB174BDA686E682068911B471C2E
:1044E00017D02F681B6A9F4219D0964217D8012413
:1044F00010E0502080F31188BFF34F8FBFF36F8F10
:10450000FEE7502080F31188BFF34F8FBFF36F8F0A
:10451000FEE70024FFF7AAFB2046BDE8F0818842B1
:1045200005D9401A20602846FFF77EFCF1E70020FD
:104530002060DCE7140000202DE9FF5F8346DDE901
:104540000E87994616468A469000FFF791FA0500B5
:104550001CD05C20FFF78CFA040014D000202563E7
:1045600084F85900CDE90240CDE900874B46324638
:1045700051465846FFF740F82046FEF7DBFE012083
:1045800004B0BDE8F09F2846FFF784FB4FF0FF30F2
:10459000F6E7F0B585B0DDE90B640A9DA6B1DCB1A4
:1045A0005C2700972663022684F85960002604AF32
:1045B000CDE90246CDE90057FFF71EF82046FEF789
:1045C000B9FE049805B0F0BD502080F31188BFF308
:1045D0004F8FBFF36F8FFEE7502080F31188BFF33A
:1045E0004F8FBFF36F8FFEE70548416919B1006B2C
:1045F00018B100207047012070470220704700006A
:10460000140000200148C06870470000140000201A
:104610002DE9F0412E4C0027206B28B1A069401CE9
:10462000A0613846BDE8F081E668761CE66013D1EB
:10463000606B006838B1502080F31188BFF34F8F52
:10464000BFF36F8FFEE7606BA16B6163A063206AAD
:10465000401C2062FFF756F9A06ADFF87880864296
:1046600009D3606B0068A0B1606BC068C5686868FA
:10467000864211D2A0622068C06A00EB800158F81F
:104680002100012800D90127E0690028C9D00127AD
:10469000C7E74FF0FF30EDE7281DFFF769FAA86A7A
:1046A00018B105F11800FFF763FAE86A216988423A
:1046B00000D9206100EB800108EB8100291DFFF784
:1046C000A8FAE86A2168C96A8842CAD30127C8E7FC
:1046D000140000204002002070B504004FF00001DB
:1046E00033D01B4D2868844207D0502080F31188B6
:1046F000BFF34F8FBFF36F8FFEE7206D38B1401EC1
:104700002065E36CE26A9A421FD040B11DE0502060
:1047100080F31188BFF34F8FBFF36F8FFEE7201D2B
:10472000FFF726FAE06CE062C0F13800A061E06AB1
:104730002969884200D92861064900EB800001EB15
:104740008000211DFFF765FA0121084670BD0000B9
:10475000140000204002002070B5C068C46854B145
:1047600004F118000646FFF703FA144D286B50B108
:104770003146134815E0502080F31188BFF34F8F66
:10478000BFF36F8FFEE7201DFFF7F2F9E06A29699A
:10479000884200D928610B4900EB800001EB8000C2
:1047A000211DFFF736FAE06A2968C96A884202D9F2
:1047B0000120E86170BD002070BD000014000020E1
:1047C000C8060020400200202DE9F0472C4D0024AF
:1047D0002746286B38B1FFF729FA286B401E28635B
:1047E000286B40B146E0502080F31188BFF34F8F13
:1047F000BFF36F8FFEE7A968224E0120D1B3A6F563
:10480000916980463068E0B1F068C46804F118002E
:10481000FFF7AEF9201DFFF7ABF9E06A296988427E
:1048200000D9286100EB800109EB8100211DFFF711
:10483000F0F9E06A2968C96A8842E3D3C5F81C80A8
:10484000E0E70CB1FFF75EF8AC694CB14FEA08063F
:10485000FFF7DEFE00B1EE61641EF9D10020A86111
:10486000E86938B10849012738070860BFF34F8F5E
:10487000BFF36F8FFFF7FAF93846BDE8F087000005
:1048800014000020C806002004ED00E010B586B03A
:10489000FEF7B8FD114C2068B8B1002003900490D9
:1048A00005AA04A903A8FFF781F9DDE90321022085
:1048B0008DE8070000230AA10B48059AFFF769FE5F
:1048C000606010B106B0012010BD502080F3118847
:1048D000BFF34F8FBFF36F8FFEE700005000002043
:1048E000546D722053766300E13900082DE9FF41D1
:1048F0001E46134602000A9D4FF0000016D0144CCD
:104900002768002F0FD0CDE900130292062917DA8D
:10491000FFF76AFE02284FF000030FD0002269461D
:104920002068FFF723FC04B0BDE8F081502080F33D
:104930001188BFF34F8FBFF36F8FFEE72A46EEE774
:104940000023324669463846FFF7C0FCEBE700001B
:104950005000002000590008000000000000000086
:10496000000000000000000000020000180000002D
:104970000000000000000000010202030405060719
:1049800008090A0B0C0D0E0F10100102020304059A
:10499000060708090A0B0C0D0E0F1010000000008E
:1049A00000000000010203040607080900000000DF
:1049B00001020304010203040000000002000400DD
:1049C00008001000AED580A83FD30040A1C8DA127D
:1049D00081CFD9F1DB40A4A68D14AF2000000000E8
:1049E0000000000000002F0000000007000700008A
:1049F000147F147F1400242A7F2A120023130864D2
:104A00006200364955225000000007000000001CDB
:104A1000224100000041221C000014083E0814003E
:104A200008083E0808000000A06000000808080808
:104A300008000060600000002010080402003E51E1
:104A400049453E0000427F40000042615149460016
:104A50002141454B31001814127F10002745454570
:104A600039003C4A494930000171090503003649C3
:104A700049493600064949291E0000363600000023
:104A800000563600000008142241000014141414CB
:104A900014000041221408000201510906003E4999
:104AA00055592E007C1211127C007F49494936006D
:104AB0003E41414122007F4141221C007F4949493A
:104AC00041007F09090901003E4149497A007F08F8
:104AD00008087F0000417F4100002040413F010065
:104AE0007F08142241007F40404040007F020C02BA
:104AF0007F007F0408107F003E4141413E007F0956
:104B0000090906003E4151215E007F09192946002E
:104B100046494949310001017F0101003F404040C1
:104B20003F001F2040201F003F4038403F006314DB
:104B300008146300070870080700615149454300E5
:104B4000007F414100000204081020000041417F25
:104B50000000040201020400404040404000000107
:104B6000020400002054545478007F484444380024
:104B7000384444442000384444487F003854545456
:104B80001800087E0901020018A4A4A47C007F0874
:104B90000404780000447D4000004080847D0000D3
:104BA0007F102844000000417F4000007C0418046E
:104BB00078007C0804047800384444443800FC241D
:104BC0002424180018242418FC007C08040408007D
:104BD000485454542000043F444020003C404020AE
:104BE0007C001C2040201C003C4030403C004428FD
:104BF000102844001CA0A0A07C004464544C440035
:104C000000087F41000000007F00000000417F0895
:104C10000000080408100800000000000000000068
:104C200000000000000000007C0000000000000206
:104C30000000000004020502010000000000000066
:104C40000090F09C90D0BC00000300000300000026
:104C50009814FE4C8C00000102070201003C24BCA9
:104C600060DC20C000020100030201C03C649CE043
:104C700020000102020302020000070200000000FF
:104C800000000000000000000000F8040200000026
:104C90000000030400000204F80000000004030008
:104CA000000000005060F8605000000000010000AB
:104CB00000002020F820202000000001000000005B
:104CC000000000000000000702000000002020207B
:104CD0002020202000000000000000000000000054
:104CE00000000002020000000000008060180400C4
:104CF0000403000000000000F8040404F8000001B0
:104D00000202020100000004FC0000000000020397
:104D1000020000000C8444241C0000030202020272
:104D200000000C042424D80000010202020100004B
:104D3000609088FC800000000000030200003C241A
:104D40001424E4000001020202010000F8241424EB
:104D5000E40000010202020100000404E4140C005B
:104D60000000000300000000DC242464DC000001DB
:104D70000202020100003C444444F8000003020225
:104D800001000000000030000000000000020000F0
:104D900000000000300000000000000600000000DD
:104DA0002050880400000000000001020010505054
:104DB0005050501000000000000000000004885017
:104DC000200000020100000000001C04C4241C009C
:104DD0000000000200000000F8F48CFC8478000160
:104DE000020202020100C0784C7080000203000041
:104DF00000030000FC242424DC80000302020201E2
:104E00000060D8040404040800010202020100004A
:104E1000FC040404F8200003020202010000FC2448
:104E2000242404000003020202020100FC242424C2
:104E30000408000300000000006098040444CC4013
:104E40000001020202010000FC202020FC000003FF
:104E50000000000300000004FC0400000000020346
:104E600002000000000004FC04000004040403002D
:104E70000000FC2070880400000300000003000014
:104E8000FC000000000000030202020201F01CE02E
:104E9000C030FC000300000100030000FC1820C02B
:104EA000FC000003000000030000F80404049C6000
:104EB0000001020202010000FC2424243C00000343
:104EC0000000000000609C8484049C6000010202D9
:104ED00003050000FC2424E41C0000030000000380
:104EE00000001C242444CC00000202020201000C39
:104EF0000404FC0404080000000300000000FC009F
:104F00000000FC0000010202020100000CF08070B1
:104F10000C0000000003000000007CC03CC038040E
:104F200000000100030000000498609804000003E2
:104F30000000000300000438C0300C000000000333
:104F4000000000000484641C04000003020202024A
:104F500000000000FF010100000000070404000041
:104F6000061860800000000000000106000001013A
:104F7000FF00000000040407000000000001010120
:104F80000000000000000000000000000000000021
:104F900008080808080808000101020000000000D5
:104FA000000000000000A0505050E000000302028A
:104FB00002030200FC201010E000000302020201C4
:104FC0000000E010101020000001020202010000A9
:104FD000E0101010FC000001020202030200E09049
:104FE00090906000000102020201000000F8141419
:104FF00004040000030200000000609090A0500034
:105000000007090A0A060000FC201010E000000357
:105010000000000300000010F40000000000020384
:105020000200000000000014E4000004080804036B
:105030000000FC8040A0000000030000010200000E
:105040000002FC0000000000020302000000E0106B
:10505000E01010E00003000300020300F020101035
:10506000E0000003000000030000E0101010E0006A
:105070000001020202010000E0201010E000080F11
:105080000A0202010000E0202020E00000010202EC
:105090000A0F080010F0201030000002030000008A
:1050A0000000205090902000000302020201000046
:1050B00000F0100000000000010202020000F000F9
:1050C0000000F000000102020203020020C000C044
:1050D00020000000000300000000E080608060000D
:1050E00000000300030000000020C02000000002B8
:1050F00001000102000020C000C0200000000807DD
:10510000000000002020E020000000020302020353
:105110000000000020DE0100000000000700000089
:105120000000FF0000000000000F0000000001DE92
:105130002000000000000700000000C02020C00088
:1051400000E001000000010100000000000000007C
:10515000000000000000000000000000F800000057
:1051600000000000330000000000100C02100C02D0
:105170000000000000000000000040C07840C0783F
:105180000000043F04043F040000708888FC0830DD
:105190000000182020FF211E00F008F08060180099
:1051A0000000310C031E211E0000F0088870000072
:1051B000001E21232C1927211000120E00000000D0
:1051C000000000000000000000000000E0180402E1
:1051D00000000000071820400000020418E0000052
:1051E000000040201807000000404080F080404050
:1051F000000202010F0102020000000000E00000B6
:1052000000000101010F0101010000000000000089
:10521000000090700000000000000000000000008E
:105220000000010101010101000000000000000078
:1052300000003030000000000000000000C0380412
:1052400000006018070000000000E010080810E0EF
:1052500000000F102020100F0000001010F80000B8
:1052600000000020203F202000007008080808F0FF
:1052700000003028242221300000300808088870FF
:10528000000018202121221C000000804030F8007E
:105290000000060524243F242400F8888888080894
:1052A000000019202020110E0000E01088889000D6
:1052B00000000F112020201F00001808088868181F
:1052C000000000003E01000000007088080888709F
:1052D00000001C222121221C0000F008080810E018
:1052E000000001122222110F00000000C0C00000C7
:1052F00000000000303000000000000080000000CE
:1053000000000000E00000000000008040201008C5
:1053100000000102040810200000404040404040CE
:105320000000020202020202000008102040800079
:10533000000020100804020100007048080888706E
:10534000000000003037000000C030C828E810E03E
:1053500000071827282F2817000000C038E0000099
:1053600000203C23020227382008F8888888700033
:1053700000203F202020110E00C030080808083807
:1053800000071820202010080008F808080810E07E
:1053900000203F202020100F0008F88888E808101F
:1053A00000203F20202320180008F88888E80810F3
:1053B00000203F200003000000C03008080838002B
:1053C0000007182020221E020008F808000008F834
:1053D00008203F210101213F20000808F8080800AB
:1053E000000020203F2020000000000808F80808E6
:1053F00000C08080807F00000008F888C02818085E
:1054000000203F20012638200008F8080000000096
:1054100000203F20202020300008F8F800F8F8088D
:1054200000203F013E013F200008F830C00008F88E
:1054300008203F200007183F00E01008080810E08F
:10544000000F10202020100F0008F808080808F0AE
:1054500000203F210101010000E01008080810E0D1
:10546000000F10282830504F0008F888888888706E
:1054700000203F2000030C30200070880808083806
:10548000000038202121221C00180808F8080818FC
:10549000000000203F2000000008F808000008F885
:1054A00008001F202020201F000878880000C8382E
:1054B00008000007380E01000008F800F800F8089E
:1054C0000000033E013E0300000818688080681851
:1054D0000820302C03032C30200838C800C83808B6
:1054E000000000203F2000000010080808C838080D
:1054F000002038262120201800000000FE020202B1
:10550000000000007F40404000000438C000000060
:1055100000000000010638C00000020202FE000088
:1055200000004040407F0000000000040202040030
:10553000000000000000000000000000000000006B
:105540000080808080808080800002020400000053
:1055500000000000000000000000008080800000CB
:105560000000192424123F200010F0008080000069
:1055700000003F112020110E0000000080808000FC
:1055800000000E112020201100000080808090F08B
:1055900000001F202020103F20000080808080001D
:1055A00000001F242424241700008080E090902015
:1055B000000020203F2020000000008080808080AC
:1055C00000006B94949493600010F0008080800041
:1055D00000203F210000203F20008098980000001C
:1055E000000020203F20200000000000809898004C
:1055F0000000C08080807F000010F000008080806C
:1056000000203F240629302000001010F800000080
:10561000000020203F20200000808080808080804B
:1056200000203F20003F20003F80800080808000DD
:1056300000203F210000203F20000080808080006B
:1056400000001F202020201F00808000808000009C
:105650000080FF912020110E00000000808000805B
:1056600000000E11202091FF8080808000808080CB
:105670000020203F212000010000008080808080E9
:10568000000033242424241900008080E08080005E
:10569000000000001F20201000808000000080809B
:1056A00000001F202020103F20808080008080800C
:1056B0000000030C300C030000808000808000801C
:1056C00080010E300C073806010080808000808049
:1056D000000020310E2E312000808080000080806C
:1056E000800081867818060100008080808080809C
:1056F000000021302C222130000000000000FC02BC
:105700000200000000013E404000000000FF0000D9
:105710000000000000FF0000000202FC000000008A
:105720000040403E010000000000020102020402AD
:10573000000000000000000000CEC2000008D200FF
:10574000DE5ADADA5A5EC0000007000407040707D1
:10575000040407000000000000000000B6C80000BC
:10576000C03C9494BCD3D4BC1412000007040404BD
:10577000050202050404000000000000000000B55E
:10578000B1000010A6ACA0A09FA0A8A6E200000255
:1057900002020202020202020700000000000000F2
:1057A0000000C7B00004E4545556F404F407F404B0
:1057B00004000701010507000104070000000000C4
:1057C0000000000000D4A4000002FA266202FA8E53
:1057D0006A0AFA000004070000040503020204003C
:1057E0000000000000000000C9E8000010F20030D6
:1057F0006EA222BE70100000000707050403030319
:105800000404000000000000000000CAAA000053C9
:10581000A244BE2AEA2AEA2AFE0000070004050480
:10582000070407060500000000000000000000005B
:105830000000FE02320A0A8A4A3202FE0000070411
:105840000404040604040407000000000000000033
:1058500000C4E300008060F8074020180F08C80863
:1058600008281800010000FF00100C0340807F0092
:1058700001061800BAC3001010F01F10F00080825B
:1058800082E2928A8680004022150816610000405C
:10589000807F0000000000CAC000202020FE2020E1
:1058A000FF202020FF20202020000000007F40401B
:1058B00047444444474040400000BDE7000000002A
:1058C000FE929292FE929292FE000000000808045E
:1058D00084621E010001FE020404080800000000AA
:1058E00000FE0202721A0A0A0A8A72020202FE000C
:1058F000007F4040404040405740404040407F0093
:1059000064656661756C745461736B002C59000892
:1059100000000020C000000028240008EC59000806
:10592000C0000020583700003824000800000000A4
:1059300001000000100000000000000000127A00CA
:105940000000000000000000000000000000000057
:105950000000000000000000000000000000000047
:105960000000000000000000000000000000000037
:105970000000000000000000000000000000000027
:105980000000000000000000000000000000000017
:105990000000000000000000000000000000000007
:1059A00000000000000000000000000000000000F7
:1059B0000000000000000000AAAAAAAA000000003F
:1059C000FF0000FF0000FF000000000000000000DA
:1059D00000080140000801400008014000080140A3
:0C59E000000000000000000000000000BB
:04000005080000ED02
:00000001FF
